{
  "_format": "hh-sol-artifact-1",
  "contractName": "Voting",
  "sourceName": "contracts/Voting.sol",
  "abi": [
    {
      "inputs": [],
      "stateMutability": "nonpayable",
      "type": "constructor"
    },
    {
      "anonymous": false,
      "inputs": [
        {
          "indexed": true,
          "internalType": "address",
          "name": "voter",
          "type": "address"
        },
        {
          "indexed": true,
          "internalType": "uint256",
          "name": "candidateIndex",
          "type": "uint256"
        }
      ],
      "name": "Voted",
      "type": "event"
    },
    {
      "inputs": [
        {
          "internalType": "uint256",
          "name": "",
          "type": "uint256"
        }
      ],
      "name": "candidates",
      "outputs": [
        {
          "internalType": "uint256",
          "name": "id",
          "type": "uint256"
        },
        {
          "internalType": "string",
          "name": "name",
          "type": "string"
        },
        {
          "internalType": "uint256",
          "name": "voteCount",
          "type": "uint256"
        }
      ],
      "stateMutability": "view",
      "type": "function"
    },
    {
      "inputs": [
        {
          "internalType": "uint256",
          "name": "_index",
          "type": "uint256"
        }
      ],
      "name": "getCandidate",
      "outputs": [
        {
          "internalType": "uint256",
          "name": "",
          "type": "uint256"
        },
        {
          "internalType": "string",
          "name": "",
          "type": "string"
        },
        {
          "internalType": "uint256",
          "name": "",
          "type": "uint256"
        }
      ],
      "stateMutability": "view",
      "type": "function"
    },
    {
      "inputs": [],
      "name": "getCandidatesCount",
      "outputs": [
        {
          "internalType": "uint256",
          "name": "",
          "type": "uint256"
        }
      ],
      "stateMutability": "view",
      "type": "function"
    },
    {
      "inputs": [
        {
          "internalType": "uint256",
          "name": "_candidateIndex",
          "type": "uint256"
        }
      ],
      "name": "vote",
      "outputs": [],
      "stateMutability": "nonpayable",
      "type": "function"
    },
    {
      "inputs": [
        {
          "internalType": "address",
          "name": "",
          "type": "address"
        }
      ],
      "name": "voters",
      "outputs": [
        {
          "internalType": "bool",
          "name": "",
          "type": "bool"
        }
      ],
      "stateMutability": "view",
      "type": "function"
    }
  ],
  "bytecode": "0x608060405234801561001057600080fd5b5060408051808201909152600b81526ae58099e98089e4baba204160a81b602082015261003c90610097565b60408051808201909152600b81526a72c04cf4c044f25d5d102160a91b602082015261006790610097565b60408051808201909152600b81526ae58099e98089e4baba204360a81b602082015261009290610097565b61028e565b604080516060810182526000805480835260208301858152938301829052600181018255908052815160039091027f290decd9548b62a8d60345a988386fc84ba6bc95484008f6362f93160ef3e56381019182559251919290917f290decd9548b62a8d60345a988386fc84ba6bc95484008f6362f93160ef3e5649091019061012090826101cf565b5060408201518160020155505050565b634e487b7160e01b600052604160045260246000fd5b600181811c9082168061015a57607f821691505b60208210810361017a57634e487b7160e01b600052602260045260246000fd5b50919050565b601f8211156101ca57600081815260208120601f850160051c810160208610156101a75750805b601f850160051c820191505b818110156101c6578281556001016101b3565b5050505b505050565b81516001600160401b038111156101e8576101e8610130565b6101fc816101f68454610146565b84610180565b602080601f83116001811461023157600084156102195750858301515b600019600386901b1c1916600185901b1785556101c6565b600085815260208120601f198616915b8281101561026057888601518255948401946001909101908401610241565b508582101561027e5787850151600019600388901b60f8161c191681555b5050505050600190811b01905550565b6105628061029d6000396000f3fe608060405234801561001057600080fd5b50600436106100575760003560e01c80630121b93f1461005c5780633477ee2e1461007157806335b8e8201461009c578063a3ec138d146100af578063bb9aa28f146100e2575b600080fd5b61006f61006a36600461040f565b6100f3565b005b61008461007f36600461040f565b610217565b60405161009393929190610428565b60405180910390f35b6100846100aa36600461040f565b6102d5565b6100d26100bd366004610485565b60016020526000908152604090205460ff1681565b6040519015158152602001610093565b600054604051908152602001610093565b3360009081526001602052604090205460ff16156101505760405162461bcd60e51b8152602060048201526015602482015274725ed072dbd973ddc7f3454af45fc3f3d2d4725d4360591b60448201526064015b60405180910390fd5b60005481106101965760405162461bcd60e51b81526020600482015260126024820152711cb0133d30113c97575c9711bcb5b31cb39560731b6044820152606401610147565b3360009081526001602081905260408220805460ff191690911790558054829081106101c4576101c46104b5565b6000918252602082206002600390920201018054916101e2836104cb565b9091555050604051819033907f4d99b957a2bc29a30ebd96a7be8e68fe50a3c701db28a91436490b7d53870ca490600090a350565b6000818154811061022757600080fd5b6000918252602090912060039091020180546001820180549193509061024c906104f2565b80601f0160208091040260200160405190810160405280929190818152602001828054610278906104f2565b80156102c55780601f1061029a576101008083540402835291602001916102c5565b820191906000526020600020905b8154815290600101906020018083116102a857829003601f168201915b5050505050908060020154905083565b60008054606090829084106103215760405162461bcd60e51b81526020600482015260126024820152711cb0133d30113c97575c9711bcb5b31cb39560731b6044820152606401610147565b6000808581548110610335576103356104b5565b906000526020600020906003020160405180606001604052908160008201548152602001600182018054610368906104f2565b80601f0160208091040260200160405190810160405280929190818152602001828054610394906104f2565b80156103e15780601f106103b6576101008083540402835291602001916103e1565b820191906000526020600020905b8154815290600101906020018083116103c457829003601f168201915b5050509183525050600291909101546020918201528151908201516040909201519097919650945092505050565b60006020828403121561042157600080fd5b5035919050565b83815260006020606081840152845180606085015260005b8181101561045c57868101830151858201608001528201610440565b506000608082860101526080601f19601f83011685010192505050826040830152949350505050565b60006020828403121561049757600080fd5b81356001600160a01b03811681146104ae57600080fd5b9392505050565b634e487b7160e01b600052603260045260246000fd5b6000600182016104eb57634e487b7160e01b600052601160045260246000fd5b5060010190565b600181811c9082168061050657607f821691505b60208210810361052657634e487b7160e01b600052602260045260246000fd5b5091905056fea264697066735822122018276d8a01f5ff698b41a7408d53642ea08a0f5511661dc56fb98c1ce8375d9e64736f6c63430008140033",
  "linkReferences": {},
  "deployedLinkReferences": {}
}